:100000000A128A11662D00308A000408840A8207C9
:1000100000344D344F34493453345434553452340D
:10002000453420343A3400344D344F3454344F3452
:10003000523420344F344E34203400344D344F3455
:1000400054344F34523420344F3446344634003420
:100ACC00A001A101A201A30183010A128A11EA2E3D
:100ADC00F70077088312031388008611061601307D
:100AEC00F0000030F1000A128A11D0250A128A1186
:100AFC008312031306120800F700770883120313FE
:100B0C008800861506160130F0000030F1000A123C
:100B1C008A11D0250A128A118312031306120800B7
:100B2C0038300A128A116E250A128A1106300A12FE
:100B3C008A116E250A128A110C300A128A116E253E
:100B4C000A128A1101300A128A116E250A128A11B0
:100B5C000800F900C22D790884000A128A110320BA
:100B6C000A128A110A128A1182250A128A1101307C
:100B7C00F8007808F907C22D790884000A128A1146
:100B8C0003200A128A110038031DCD2DCE2DB12D54
:100B9C00CF2D0800F301F401FE2DF501F6017608C6
:100BAC00803AFF0083307F02031DDE2DE830750292
:100BBC00031CE12DE22DE42DF82DF82D0130F50765
:100BCC000318F60A0030F6077608803AFF008330E7
:100BDC007F02031DF32DE8307502031CF62DF72D53
:100BEC00E42DF82D0130F3070318F40A0030F40754
:100BFC007408803AF2007108803A7202031D082EC4
:100C0C0070087302031C0B2E0C2ED32D0D2E080016
:100C1C0083120313A501FC1F142E152E1E2EFB0987
:100C2C00FC09FB0A0319FC0AA5010314A50D1E2ED1
:100C3C00FA1F212E222E282EF909FA09F90A031976
:100C4C00FA0A282E7A08790403192D2E2E2E642EDA
:100C5C00A4010314A40D3E2E01300310F90DFA0D5E
:100C6C00FF3E031D332E0130FD007D08A4073E2EF0
:100C7C00FA1F412E422E322E442E442E7A087C022C
:100C8C00031D4A2E79087B02031C4D2E4E2E552E29
:100C9C007908FB027A08031CFC03FC02552E013078
:100CAC000310FA0CF90CFF3E031D562E0130A40262
:100CBC00031D612E622E442E642E642E2508031D06
:100CCC00682E6E2EFB09FC09FB0A0319FC0A6E2E1A
:100CDC007C08FA01FA077B08F901F907752E080060
:100CEC00F601F11F7A2E7B2E842EF009F109F00A01
:100CFC000319F10AF6010314F60D842EF31F872E47
:100D0C00882E922EF209F309F20A0319F30A013024
:100D1C00F4007408F606922EF701F80171087004BD
:100D2C000319992E9A2ED82EF5010314F50DAA2E1F
:100D3C0001300310F00DF10DFF3E031D9F2E01300D
:100D4C00F4007408F507AA2EF11FAD2EAE2E9E2EC0
:100D5C00B02EB02E01300310F70DF80DFF3E031D21
:100D6C00B12E71087302031DBD2E70087202031C94
:100D7C00C02EC12EC92E7008F2027108031CF30399
:100D8C00F3027714C92E01300310F10CF00CFF3E66
:100D9C00031DCA2E0130F502031DD52ED62EB02E02
:100DAC00D82ED82E7608031DDC2EE22EF709F80972
:100DBC00F70A0319F80AE22E7808F101F10777080F
:100DCC00F001F007E92E08008B170B17831603139D
:100DDC000C17860188018701831203138701880190
:100DEC0086010A128A1196250A128A11C0300A123B
:100DFC008A116E250A128A1101300A128A11AF2546
:100E0C000A128A114130831203139F008E3083160D
:100E1C0003139F008312031306118610061007108C
:100E2C008710182F831203131F151C2F1F191F2F28
:100E3C00202F1C2F212F1E08A600A7012608A70073
:100E4C00A601831603131E08831203132607A000A2
:100E5C000030031801302707A100CA300A128A118A
:100E6C006E250A128A11831203132108A301A3070A
:100E7C002008A201A207E830F0000330F10023089B
:100E8C00F301F3072208F201F2070A128A117626FF
:100E9C000A128A117008303E0A128A1182250A122F
:100EAC008A110A30F9000030FA006430F00000308A
:100EBC00F100831203132308F301F3072208F20154
:100ECC00F2070A128A1176260A128A117108FC019D
:100EDC00FC077008FB01FB070A128A110E260A1286
:100EEC008A117908303E0A128A1182250A128A1157
:100EFC000A30F9000030FA000A30F0000030F1003E
:100F0C00831203132308F301F3072208F201F207FB
:100F1C000A128A1176260A128A117108FC01FC0742
:100F2C007008FB01FB070A128A110E260A128A119D
:100F3C007908303E0A128A1182250A128A110A3067
:100F4C00F9000030FA00831203132308FC01FC079C
:100F5C002208FB01FB070A128A110E260A128A11BB
:100F6C007908303E0A128A1182250A128A118312DC
:100F7C0003132108803AFF0081307F02031DC82F24
:100F8C00F53020020318CB2FCC2FE82F831203133C
:100F9C00061406150714871080300A128A116E2564
:100FAC000A128A110C300A128A11AF250A128A1100
:100FBC00F430F0000130F1000A128A11D0250A1227
:100FCC008A11182F831203130610061107108714A9
:100FDC0080300A128A116E250A128A1116300A12F2
:100FEC008A11AF250A128A11182F182F182F0A12DE
:040FFC008A1100282E
:00000001FF
